:0D000E00EFD3940040077E64DEFE1F80F3F8
:01001B0022C2
:1000E200758921758DFF758BFF758CC0E4F58AD2F9
:1000F2008ED28C759850438780D2AFD2ACD2A9D21F
:02010200BC221D
:10007600E4F50A1200E2E4FD7401A805088002C353
:1000860033D8FCF5A07F0A12000EE50875F008A427
:10009600240E2DF8E6F5807F0A12000E0DBD08D855
:1000A600AF087401A807088002C333D8FCF5908016
:0100B600C584
:03002300020026B2
:0D002600C0E0C0F0C0D075D000C000C00721
:10003300C298050AE50AC394024023AF99E50B75FC
:10004300F008A4240E250CF8A607050BE50BB4084D
:100053000D750B00050CE50CB40803750C00E50ADF
:08006300C394414003750A003B
:0B006B00D007D000D0D0D0F0D0E032A1
:03000B000200B739
:1000B700C0E0C0D0758CC0758A00E509C39415509F
:1000C7000405098011750900E508D3940750040554
:0B00D700088003750800D0D0D0E03294
:03000000020104F6
:0C010400787FE4F6D8FD75814D0200768E
:00000001FF
